{
  "contractName": "PollShip",
  "abi": [
    {
      "inputs": [
        {
          "internalType": "string",
          "name": "uuid_",
          "type": "string"
        },
        {
          "internalType": "string",
          "name": "title_",
          "type": "string"
        },
        {
          "internalType": "string[]",
          "name": "candidateNames_",
          "type": "string[]"
        }
      ],
      "name": "createNewPoll",
      "outputs": [],
      "stateMutability": "payable",
      "type": "function",
      "payable": true
    },
    {
      "inputs": [
        {
          "internalType": "string",
          "name": "pollId_",
          "type": "string"
        }
      ],
      "name": "getPollInfo",
      "outputs": [
        {
          "internalType": "string",
          "name": "title_",
          "type": "string"
        }
      ],
      "stateMutability": "view",
      "type": "function",
      "constant": true
    },
    {
      "inputs": [
        {
          "internalType": "string",
          "name": "pollId_",
          "type": "string"
        },
        {
          "internalType": "string",
          "name": "candidateName_",
          "type": "string"
        }
      ],
      "name": "vote",
      "outputs": [],
      "stateMutability": "payable",
      "type": "function",
      "payable": true
    },
    {
      "inputs": [
        {
          "internalType": "string",
          "name": "pollId_",
          "type": "string"
        },
        {
          "internalType": "string",
          "name": "candidateName_",
          "type": "string"
        }
      ],
      "name": "getVoteCountFor",
      "outputs": [
        {
          "internalType": "uint256",
          "name": "voteCount_",
          "type": "uint256"
        }
      ],
      "stateMutability": "view",
      "type": "function",
      "constant": true
    },
    {
      "inputs": [
        {
          "internalType": "string",
          "name": "pollId_",
          "type": "string"
        }
      ],
      "name": "hasAlreadyVoted",
      "outputs": [
        {
          "internalType": "bool",
          "name": "hasAlreadyVoted_",
          "type": "bool"
        }
      ],
      "stateMutability": "view",
      "type": "function",
      "constant": true
    },
    {
      "inputs": [
        {
          "internalType": "string",
          "name": "pollId_",
          "type": "string"
        }
      ],
      "name": "getFinalResult",
      "outputs": [
        {
          "components": [
            {
              "internalType": "string",
              "name": "name",
              "type": "string"
            },
            {
              "internalType": "uint256",
              "name": "voteCount",
              "type": "uint256"
            }
          ],
          "internalType": "struct Result[]",
          "name": "",
          "type": "tuple[]"
        }
      ],
      "stateMutability": "view",
      "type": "function",
      "constant": true
    }
  ],
  "bytecode": "0x6080604052600160005534801561001557600080fd5b50612c7c806100256000396000f3fe6080604052600436106200005c5760003560e01c80630ec8e14c14620000615780633094298a14620000a55780636300ec8514620000c5578063a8ac93d21462000109578063ad5db5b1146200014d578063e8d5940d1462000191575b600080fd5b3480156200006e57600080fd5b506200008d6004803603810190620000879190620006c9565b620001b1565b6040516200009c9190620008e4565b60405180910390f35b620000c36004803603810190620000bd919062000967565b6200027a565b005b348015620000d257600080fd5b50620000f16004803603810190620000eb919062000a2d565b62000321565b60405162000100919062000acc565b60405180910390f35b3480156200011657600080fd5b506200013560048036038101906200012f9190620006c9565b620003f0565b60405162000144919062000b06565b60405180910390f35b3480156200015a57600080fd5b50620001796004803603810190620001739190620006c9565b620004bb565b60405162000188919062000b75565b60405180910390f35b620001af6004803603810190620001a9919062000a2d565b6200057e565b005b6060600060018484604051620001c992919062000bdc565b908152602001604051809103902060009054906101000a900473ffffffffffffffffffffffffffffffffffffffff1673ffffffffffffffffffffffffffffffffffffffff16634717f97c6040518163ffffffff1660e01b8152600401600060405180830381865afa15801562000243573d6000803e3d6000fd5b505050506040513d6000823e3d601f19601f820116820180604052508101906200026e919062000ede565b90508091505092915050565b838383836040516200028c9062000639565b6200029b9493929190620010d2565b604051809103906000f080158015620002b8573d6000803e3d6000fd5b5060018787604051620002cd92919062000bdc565b908152602001604051809103902060006101000a81548173ffffffffffffffffffffffffffffffffffffffff021916908373ffffffffffffffffffffffffffffffffffffffff160217905550505050505050565b6000600185856040516200033792919062000bdc565b908152602001604051809103902060009054906101000a900473ffffffffffffffffffffffffffffffffffffffff1673ffffffffffffffffffffffffffffffffffffffff166341105c4b84846040518363ffffffff1660e01b8152600401620003a292919062001111565b602060405180830381865afa158015620003c0573d6000803e3d6000fd5b505050506040513d601f19601f82011682018060405250810190620003e6919062001137565b9050949350505050565b6000600183836040516200040692919062000bdc565b908152602001604051809103902060009054906101000a900473ffffffffffffffffffffffffffffffffffffffff1673ffffffffffffffffffffffffffffffffffffffff16638574d5b0336040518263ffffffff1660e01b81526004016200046f9190620011ae565b602060405180830381865afa1580156200048d573d6000803e3d6000fd5b505050506040513d601f19601f82011682018060405250810190620004b39190620011fc565b905092915050565b606060018383604051620004d192919062000bdc565b908152602001604051809103902060009054906101000a900473ffffffffffffffffffffffffffffffffffffffff1673ffffffffffffffffffffffffffffffffffffffff166326f063ce6040518163ffffffff1660e01b8152600401600060405180830381865afa1580156200054b573d6000803e3d6000fd5b505050506040513d6000823e3d601f19601f820116820180604052508101906200057691906200122e565b905092915050565b600184846040516200059292919062000bdc565b908152602001604051809103902060009054906101000a900473ffffffffffffffffffffffffffffffffffffffff1673ffffffffffffffffffffffffffffffffffffffff16631bf533a43384846040518463ffffffff1660e01b8152600401620005ff939291906200127f565b600060405180830381600087803b1580156200061a57600080fd5b505af11580156200062f573d6000803e3d6000fd5b5050505050505050565b61199180620012b683390190565b6000604051905090565b600080fd5b600080fd5b600080fd5b600080fd5b600080fd5b60008083601f8401126200068357620006826200065b565b5b8235905067ffffffffffffffff811115620006a357620006a262000660565b5b602083019150836001820283011115620006c257620006c162000665565b5b9250929050565b60008060208385031215620006e357620006e262000651565b5b600083013567ffffffffffffffff81111562000704576200070362000656565b5b62000712858286016200066a565b92509250509250929050565b600081519050919050565b600082825260208201905092915050565b6000819050602082019050919050565b600081519050919050565b600082825260208201905092915050565b60005b838110156200078657808201518184015260208101905062000769565b60008484015250505050565b6000601f19601f8301169050919050565b6000620007b0826200074a565b620007bc818562000755565b9350620007ce81856020860162000766565b620007d98162000792565b840191505092915050565b6000819050919050565b620007f981620007e4565b82525050565b600060408301600083015184820360008601526200081e8282620007a3565b9150506020830151620008356020860182620007ee565b508091505092915050565b60006200084e8383620007ff565b905092915050565b6000602082019050919050565b600062000870826200071e565b6200087c818562000729565b93508360208202850162000890856200073a565b8060005b85811015620008d25784840389528151620008b0858262000840565b9450620008bd8362000856565b925060208a0199505060018101905062000894565b50829750879550505050505092915050565b6000602082019050818103600083015262000900818462000863565b905092915050565b60008083601f8401126200092157620009206200065b565b5b8235905067ffffffffffffffff81111562000941576200094062000660565b5b60208301915083602082028301111562000960576200095f62000665565b5b9250929050565b6000806000806000806060878903121562000987576200098662000651565b5b600087013567ffffffffffffffff811115620009a857620009a762000656565b5b620009b689828a016200066a565b9650965050602087013567ffffffffffffffff811115620009dc57620009db62000656565b5b620009ea89828a016200066a565b9450945050604087013567ffffffffffffffff81111562000a105762000a0f62000656565b5b62000a1e89828a0162000908565b92509250509295509295509295565b6000806000806040858703121562000a4a5762000a4962000651565b5b600085013567ffffffffffffffff81111562000a6b5762000a6a62000656565b5b62000a79878288016200066a565b9450945050602085013567ffffffffffffffff81111562000a9f5762000a9e62000656565b5b62000aad878288016200066a565b925092505092959194509250565b62000ac681620007e4565b82525050565b600060208201905062000ae3600083018462000abb565b92915050565b60008115159050919050565b62000b008162000ae9565b82525050565b600060208201905062000b1d600083018462000af5565b92915050565b600082825260208201905092915050565b600062000b41826200074a565b62000b4d818562000b23565b935062000b5f81856020860162000766565b62000b6a8162000792565b840191505092915050565b6000602082019050818103600083015262000b91818462000b34565b905092915050565b600081905092915050565b82818337600083830152505050565b600062000bc1838562000b99565b935062000bd083858462000ba4565b82840190509392505050565b600062000beb82848662000bb3565b91508190509392505050565b7f4e487b7100000000000000000000000000000000000000000000000000000000600052604160045260246000fd5b62000c318262000792565b810181811067ffffffffffffffff8211171562000c535762000c5262000bf7565b5b80604052505050565b600062000c6862000647565b905062000c76828262000c26565b919050565b600067ffffffffffffffff82111562000c995762000c9862000bf7565b5b602082029050602081019050919050565b600080fd5b600080fd5b600080fd5b600067ffffffffffffffff82111562000cd75762000cd662000bf7565b5b62000ce28262000792565b9050602081019050919050565b600062000d0662000d008462000cb9565b62000c5c565b90508281526020810184848401111562000d255762000d2462000cb4565b5b62000d3284828562000766565b509392505050565b600082601f83011262000d525762000d516200065b565b5b815162000d6484826020860162000cef565b91505092915050565b62000d7881620007e4565b811462000d8457600080fd5b50565b60008151905062000d988162000d6d565b92915050565b60006040828403121562000db75762000db662000caa565b5b62000dc3604062000c5c565b9050600082015167ffffffffffffffff81111562000de65762000de562000caf565b5b62000df48482850162000d3a565b600083015250602062000e0a8482850162000d87565b60208301525092915050565b600062000e2d62000e278462000c7b565b62000c5c565b9050808382526020820190506020840283018581111562000e535762000e5262000665565b5b835b8181101562000ea157805167ffffffffffffffff81111562000e7c5762000e7b6200065b565b5b80860162000e8b898262000d9e565b8552602085019450505060208101905062000e55565b5050509392505050565b600082601f83011262000ec35762000ec26200065b565b5b815162000ed584826020860162000e16565b91505092915050565b60006020828403121562000ef75762000ef662000651565b5b600082015167ffffffffffffffff81111562000f185762000f1762000656565b5b62000f268482850162000eab565b91505092915050565b600062000f3d838562000b23565b935062000f4c83858462000ba4565b62000f578362000792565b840190509392505050565b600082825260208201905092915050565b6000819050919050565b600062000f8b838562000755565b935062000f9a83858462000ba4565b62000fa58362000792565b840190509392505050565b600062000fbf84848462000f7d565b90509392505050565b600080fd5b600080fd5b600080fd5b6000808335600160200384360303811262000ff75762000ff662000fd2565b5b83810192508235915060208301925067ffffffffffffffff82111562001022576200102162000fc8565b5b6001820236038313156200103b576200103a62000fcd565b5b509250929050565b6000602082019050919050565b60006200105e838562000f62565b935083602084028501620010728462000f73565b8060005b87811015620010c057848403895262001090828462000fd7565b6200109d86828462000fb0565b9550620010aa8462001043565b935060208b019a50505060018101905062001076565b50829750879450505050509392505050565b60006040820190508181036000830152620010ef81868862000f2f565b905081810360208301526200110681848662001050565b905095945050505050565b600060208201905081810360008301526200112e81848662000f2f565b90509392505050565b60006020828403121562001150576200114f62000651565b5b6000620011608482850162000d87565b91505092915050565b600073ffffffffffffffffffffffffffffffffffffffff82169050919050565b6000620011968262001169565b9050919050565b620011a88162001189565b82525050565b6000602082019050620011c560008301846200119d565b92915050565b620011d68162000ae9565b8114620011e257600080fd5b50565b600081519050620011f681620011cb565b92915050565b60006020828403121562001215576200121462000651565b5b60006200122584828501620011e5565b91505092915050565b60006020828403121562001247576200124662000651565b5b600082015167ffffffffffffffff81111562001268576200126762000656565b5b620012768482850162000d3a565b91505092915050565b60006040820190506200129660008301866200119d565b8181036020830152620012ab81848662000f2f565b905094935050505056fe60806040523480156200001157600080fd5b506040516200199138038062001991833981810160405281019062000037919062000491565b816000908162000048919062000761565b5033600360006101000a81548173ffffffffffffffffffffffffffffffffffffffff021916908373ffffffffffffffffffffffffffffffffffffffff1602179055508060049080519060200190620000a292919062000115565b5060005b81518110156200010c5760006001838381518110620000ca57620000c962000848565b5b6020026020010151604051620000e19190620008b9565b9081526020016040518091039020600001819055508080620001039062000901565b915050620000a6565b5050506200094e565b82805482825590600052602060002090810192821562000162579160200282015b828111156200016157825182908162000150919062000761565b509160200191906001019062000136565b5b50905062000171919062000175565b5090565b5b808211156200019957600081816200018f91906200019d565b5060010162000176565b5090565b508054620001ab9062000550565b6000825580601f10620001bf5750620001e0565b601f016020900490600052602060002090810190620001df9190620001e3565b5b50565b5b80821115620001fe576000816000905550600101620001e4565b5090565b6000604051905090565b600080fd5b600080fd5b600080fd5b600080fd5b6000601f19601f8301169050919050565b7f4e487b7100000000000000000000000000000000000000000000000000000000600052604160045260246000fd5b6200026b8262000220565b810181811067ffffffffffffffff821117156200028d576200028c62000231565b5b80604052505050565b6000620002a262000202565b9050620002b0828262000260565b919050565b600067ffffffffffffffff821115620002d357620002d262000231565b5b620002de8262000220565b9050602081019050919050565b60005b838110156200030b578082015181840152602081019050620002ee565b60008484015250505050565b60006200032e6200032884620002b5565b62000296565b9050828152602081018484840111156200034d576200034c6200021b565b5b6200035a848285620002eb565b509392505050565b600082601f8301126200037a576200037962000216565b5b81516200038c84826020860162000317565b91505092915050565b600067ffffffffffffffff821115620003b357620003b262000231565b5b602082029050602081019050919050565b600080fd5b6000620003e0620003da8462000395565b62000296565b90508083825260208201905060208402830185811115620004065762000405620003c4565b5b835b818110156200045457805167ffffffffffffffff8111156200042f576200042e62000216565b5b8086016200043e898262000362565b8552602085019450505060208101905062000408565b5050509392505050565b600082601f83011262000476576200047562000216565b5b815162000488848260208601620003c9565b91505092915050565b60008060408385031215620004ab57620004aa6200020c565b5b600083015167ffffffffffffffff811115620004cc57620004cb62000211565b5b620004da8582860162000362565b925050602083015167ffffffffffffffff811115620004fe57620004fd62000211565b5b6200050c858286016200045e565b9150509250929050565b600081519050919050565b7f4e487b7100000000000000000000000000000000000000000000000000000000600052602260045260246000fd5b600060028204905060018216806200056957607f821691505b6020821081036200057f576200057e62000521565b5b50919050565b60008190508160005260206000209050919050565b60006020601f8301049050919050565b600082821b905092915050565b600060088302620005e97fffffffffffffffffffffffffffffffffffffffffffffffffffffffffffffffff82620005aa565b620005f58683620005aa565b95508019841693508086168417925050509392505050565b6000819050919050565b6000819050919050565b6000620006426200063c62000636846200060d565b62000617565b6200060d565b9050919050565b6000819050919050565b6200065e8362000621565b620006766200066d8262000649565b848454620005b7565b825550505050565b600090565b6200068d6200067e565b6200069a81848462000653565b505050565b5b81811015620006c257620006b660008262000683565b600181019050620006a0565b5050565b601f8211156200071157620006db8162000585565b620006e6846200059a565b81016020851015620006f6578190505b6200070e62000705856200059a565b8301826200069f565b50505b505050565b600082821c905092915050565b6000620007366000198460080262000716565b1980831691505092915050565b600062000751838362000723565b9150826002028217905092915050565b6200076c8262000516565b67ffffffffffffffff81111562000788576200078762000231565b5b62000794825462000550565b620007a1828285620006c6565b600060209050601f831160018114620007d95760008415620007c4578287015190505b620007d0858262000743565b86555062000840565b601f198416620007e98662000585565b60005b828110156200081357848901518255600182019150602085019450602081019050620007ec565b868310156200083357848901516200082f601f89168262000723565b8355505b6001600288020188555050505b505050505050565b7f4e487b7100000000000000000000000000000000000000000000000000000000600052603260045260246000fd5b600081905092915050565b60006200088f8262000516565b6200089b818562000877565b9350620008ad818560208601620002eb565b80840191505092915050565b6000620008c7828462000882565b915081905092915050565b7f4e487b7100000000000000000000000000000000000000000000000000000000600052601160045260246000fd5b60006200090e826200060d565b91507fffffffffffffffffffffffffffffffffffffffffffffffffffffffffffffffff8203620009435762000942620008d2565b5b600182019050919050565b611033806200095e6000396000f3fe60806040526004361061004a5760003560e01c80631bf533a41461004f57806326f063ce1461006b57806341105c4b146100965780634717f97c146100d35780638574d5b0146100fe575b600080fd5b61006960048036038101906100649190610836565b61013b565b005b34801561007757600080fd5b50610080610392565b60405161008d9190610911565b60405180910390f35b3480156100a257600080fd5b506100bd60048036038101906100b89190610993565b610424565b6040516100ca91906109f9565b60405180910390f35b3480156100df57600080fd5b506100e8610452565b6040516100f59190610b6c565b60405180910390f35b34801561010a57600080fd5b5061012560048036038101906101209190610b8e565b61060b565b6040516101329190610bd6565b60405180910390f35b600260008373ffffffffffffffffffffffffffffffffffffffff1673ffffffffffffffffffffffffffffffffffffffff16815260200190815260200160002060000160149054906101000a900460ff16156101cb576040517f08c379a00000000000000000000000000000000000000000000000000000000081526004016101c290610c3d565b60405180910390fd5b6000805b60048054905081101561023857600481815481106101f0576101ef610c5d565b5b906000526020600020016040516102079190610d8f565b60405180910390208380519060200120036102255760019150610238565b808061023090610dd5565b9150506101cf565b5080610279576040517f08c379a000000000000000000000000000000000000000000000000000000000815260040161027090610e69565b60405180910390fd5b6001808360405161028a9190610ec5565b908152602001604051809103902060000160008282546102aa9190610edc565b9250508190555082600260008573ffffffffffffffffffffffffffffffffffffffff1673ffffffffffffffffffffffffffffffffffffffff16815260200190815260200160002060000160006101000a81548173ffffffffffffffffffffffffffffffffffffffff021916908373ffffffffffffffffffffffffffffffffffffffff1602179055506001600260008573ffffffffffffffffffffffffffffffffffffffff1673ffffffffffffffffffffffffffffffffffffffff16815260200190815260200160002060000160146101000a81548160ff021916908315150217905550505050565b6060600080546103a190610cbb565b80601f01602080910402602001604051908101604052809291908181526020018280546103cd90610cbb565b801561041a5780601f106103ef5761010080835404028352916020019161041a565b820191906000526020600020905b8154815290600101906020018083116103fd57829003601f168201915b5050505050905090565b600060018383604051610438929190610f35565b908152602001604051809103902060000154905092915050565b6060600060048054905067ffffffffffffffff8111156104755761047461070b565b5b6040519080825280602002602001820160405280156104ae57816020015b61049b610664565b8152602001906001900390816104935790505b5090506000805b600480549050811015610602576104ca610664565b600482815481106104de576104dd610c5d565b5b9060005260206000200180546104f390610cbb565b80601f016020809104026020016040519081016040528092919081815260200182805461051f90610cbb565b801561056c5780601f106105415761010080835404028352916020019161056c565b820191906000526020600020905b81548152906001019060200180831161054f57829003601f168201915b5050505050816000018190525060016004838154811061058f5761058e610c5d565b5b906000526020600020016040516105a69190610fe6565b908152602001604051809103902060000154816020018181525050808484815181106105d5576105d4610c5d565b5b602002602001018190525082806105eb90610dd5565b9350505080806105fa90610dd5565b9150506104b5565b50819250505090565b6000600260008373ffffffffffffffffffffffffffffffffffffffff1673ffffffffffffffffffffffffffffffffffffffff16815260200190815260200160002060000160149054906101000a900460ff169050919050565b604051806040016040528060608152602001600081525090565b6000604051905090565b600080fd5b600080fd5b600073ffffffffffffffffffffffffffffffffffffffff82169050919050565b60006106bd82610692565b9050919050565b6106cd816106b2565b81146106d857600080fd5b50565b6000813590506106ea816106c4565b92915050565b600080fd5b600080fd5b6000601f19601f8301169050919050565b7f4e487b7100000000000000000000000000000000000000000000000000000000600052604160045260246000fd5b610743826106fa565b810181811067ffffffffffffffff821117156107625761076161070b565b5b80604052505050565b600061077561067e565b9050610781828261073a565b919050565b600067ffffffffffffffff8211156107a1576107a061070b565b5b6107aa826106fa565b9050602081019050919050565b82818337600083830152505050565b60006107d96107d484610786565b61076b565b9050828152602081018484840111156107f5576107f46106f5565b5b6108008482856107b7565b509392505050565b600082601f83011261081d5761081c6106f0565b5b813561082d8482602086016107c6565b91505092915050565b6000806040838503121561084d5761084c610688565b5b600061085b858286016106db565b925050602083013567ffffffffffffffff81111561087c5761087b61068d565b5b61088885828601610808565b9150509250929050565b600081519050919050565b600082825260208201905092915050565b60005b838110156108cc5780820151818401526020810190506108b1565b60008484015250505050565b60006108e382610892565b6108ed818561089d565b93506108fd8185602086016108ae565b610906816106fa565b840191505092915050565b6000602082019050818103600083015261092b81846108d8565b905092915050565b600080fd5b600080fd5b60008083601f840112610953576109526106f0565b5b8235905067ffffffffffffffff8111156109705761096f610933565b5b60208301915083600182028301111561098c5761098b610938565b5b9250929050565b600080602083850312156109aa576109a9610688565b5b600083013567ffffffffffffffff8111156109c8576109c761068d565b5b6109d48582860161093d565b92509250509250929050565b6000819050919050565b6109f3816109e0565b82525050565b6000602082019050610a0e60008301846109ea565b92915050565b600081519050919050565b600082825260208201905092915050565b6000819050602082019050919050565b600082825260208201905092915050565b6000610a5c82610892565b610a668185610a40565b9350610a768185602086016108ae565b610a7f816106fa565b840191505092915050565b610a93816109e0565b82525050565b60006040830160008301518482036000860152610ab68282610a51565b9150506020830151610acb6020860182610a8a565b508091505092915050565b6000610ae28383610a99565b905092915050565b6000602082019050919050565b6000610b0282610a14565b610b0c8185610a1f565b935083602082028501610b1e85610a30565b8060005b85811015610b5a5784840389528151610b3b8582610ad6565b9450610b4683610aea565b925060208a01995050600181019050610b22565b50829750879550505050505092915050565b60006020820190508181036000830152610b868184610af7565b905092915050565b600060208284031215610ba457610ba3610688565b5b6000610bb2848285016106db565b91505092915050565b60008115159050919050565b610bd081610bbb565b82525050565b6000602082019050610beb6000830184610bc7565b92915050565b7f566f746520616c726561647920646f6e65212100000000000000000000000000600082015250565b6000610c2760138361089d565b9150610c3282610bf1565b602082019050919050565b60006020820190508181036000830152610c5681610c1a565b9050919050565b7f4e487b7100000000000000000000000000000000000000000000000000000000600052603260045260246000fd5b7f4e487b7100000000000000000000000000000000000000000000000000000000600052602260045260246000fd5b60006002820490506001821680610cd357607f821691505b602082108103610ce657610ce5610c8c565b5b50919050565b600081905092915050565b60008190508160005260206000209050919050565b60008154610d1981610cbb565b610d238186610cec565b94506001821660008114610d3e5760018114610d5357610d86565b60ff1983168652811515820286019350610d86565b610d5c85610cf7565b60005b83811015610d7e57815481890152600182019150602081019050610d5f565b838801955050505b50505092915050565b6000610d9b8284610d0c565b915081905092915050565b7f4e487b7100000000000000000000000000000000000000000000000000000000600052601160045260246000fd5b6000610de0826109e0565b91507fffffffffffffffffffffffffffffffffffffffffffffffffffffffffffffffff8203610e1257610e11610da6565b5b600182019050919050565b7f496e76616c6964204f7074696f6e000000000000000000000000000000000000600082015250565b6000610e53600e8361089d565b9150610e5e82610e1d565b602082019050919050565b60006020820190508181036000830152610e8281610e46565b9050919050565b600081905092915050565b6000610e9f82610892565b610ea98185610e89565b9350610eb98185602086016108ae565b80840191505092915050565b6000610ed18284610e94565b915081905092915050565b6000610ee7826109e0565b9150610ef2836109e0565b9250828201905080821115610f0a57610f09610da6565b5b92915050565b6000610f1c8385610e89565b9350610f298385846107b7565b82840190509392505050565b6000610f42828486610f10565b91508190509392505050565b60008190508160005260206000209050919050565b60008154610f7081610cbb565b610f7a8186610e89565b94506001821660008114610f955760018114610faa57610fdd565b60ff1983168652811515820286019350610fdd565b610fb385610f4e565b60005b83811015610fd557815481890152600182019150602081019050610fb6565b838801955050505b50505092915050565b6000610ff28284610f63565b91508190509291505056fea2646970667358221220dd5dc854f8bb4b389f3400dc3558c619815b58b360eddf452942b9ee706bb9f364736f6c63430008110033a26469706673582212206a88b24fc20a06e7c72ec414d49accb15529e19d5118850252dd440cc2de460f64736f6c63430008110033",
  "immutableReferences": {},
  "source": "//SPDX-License-Identifier: UNLICENSED\n\npragma solidity ^0.8.0;\n\nimport { Poll } from \"./Poll.sol\" ;\nimport { Result } from \"./../types/types.sol\" ;\n\ncontract PollShip\n{\n  uint id = 1;\n  mapping(string => Poll) poll;\n\n  function createNewPoll(string calldata uuid_, string calldata title_, string[] calldata candidateNames_) public payable\n  {\n    poll[uuid_] = new Poll(title_, candidateNames_);\n  }\n\n  function getPollInfo(string calldata pollId_) public view returns (string memory title_)\n  {\n    title_ = poll[pollId_].getPollInfo();\n  }\n\n  function vote(string calldata pollId_, string calldata candidateName_) public payable\n  {\n    poll[pollId_].vote(msg.sender, candidateName_);\n  }\n\n  function getVoteCountFor(string calldata pollId_, string calldata candidateName_) public view returns (uint voteCount_)\n  {\n    voteCount_ = poll[pollId_].getVoteCountFor(candidateName_);\n  }\n\n  function hasAlreadyVoted(string calldata pollId_) public view returns (bool hasAlreadyVoted_)\n  { \n    hasAlreadyVoted_ = poll[pollId_].hasAlreadyVoted(msg.sender);\n  }\n\n  function getFinalResult(string calldata pollId_) public view returns (Result[] memory)\n  {\n    Result[] memory finalResult = poll[pollId_].getResults();\n    return finalResult;\n  }\n\n}",
  "sourcePath": "/Users/nidhilsuresh/projects/truffle/poll-ship-contract/contracts/PollShip.sol",
  "compiler": {
    "name": "solc",
    "version": "0.8.17+commit.8df45f5f.Emscripten.clang"
  },
  "schemaVersion": "3.4.11",
  "updatedAt": "2022-12-11T12:36:53.940Z",
  "networkType": "ethereum",
  "devdoc": {
    "kind": "dev",
    "methods": {},
    "version": 1
  },
  "userdoc": {
    "kind": "user",
    "methods": {},
    "version": 1
  }
}