{
  "contractName": "Poll",
  "abi": [
    {
      "inputs": [
        {
          "internalType": "string",
          "name": "title_",
          "type": "string"
        },
        {
          "internalType": "string[]",
          "name": "candidateNames_",
          "type": "string[]"
        }
      ],
      "stateMutability": "nonpayable",
      "type": "constructor"
    },
    {
      "inputs": [
        {
          "internalType": "address",
          "name": "voter_",
          "type": "address"
        }
      ],
      "name": "hasAlreadyVoted",
      "outputs": [
        {
          "internalType": "bool",
          "name": "hasVoted_",
          "type": "bool"
        }
      ],
      "stateMutability": "view",
      "type": "function"
    },
    {
      "inputs": [
        {
          "internalType": "address",
          "name": "voter_",
          "type": "address"
        },
        {
          "internalType": "string",
          "name": "candidateName",
          "type": "string"
        }
      ],
      "name": "vote",
      "outputs": [],
      "stateMutability": "payable",
      "type": "function"
    },
    {
      "inputs": [
        {
          "internalType": "string",
          "name": "candidateName",
          "type": "string"
        }
      ],
      "name": "getVoteCountFor",
      "outputs": [
        {
          "internalType": "uint256",
          "name": "voteCount_",
          "type": "uint256"
        }
      ],
      "stateMutability": "view",
      "type": "function"
    },
    {
      "inputs": [],
      "name": "getResults",
      "outputs": [
        {
          "components": [
            {
              "internalType": "string",
              "name": "name",
              "type": "string"
            },
            {
              "internalType": "uint256",
              "name": "voteCount",
              "type": "uint256"
            }
          ],
          "internalType": "struct Result[]",
          "name": "",
          "type": "tuple[]"
        }
      ],
      "stateMutability": "view",
      "type": "function"
    },
    {
      "inputs": [],
      "name": "getPollInfo",
      "outputs": [
        {
          "internalType": "string",
          "name": "title_",
          "type": "string"
        }
      ],
      "stateMutability": "view",
      "type": "function"
    }
  ],
  "bytecode": "0x60806040523480156200001157600080fd5b506040516200199138038062001991833981810160405281019062000037919062000491565b816000908162000048919062000761565b5033600360006101000a81548173ffffffffffffffffffffffffffffffffffffffff021916908373ffffffffffffffffffffffffffffffffffffffff1602179055508060049080519060200190620000a292919062000115565b5060005b81518110156200010c5760006001838381518110620000ca57620000c962000848565b5b6020026020010151604051620000e19190620008b9565b9081526020016040518091039020600001819055508080620001039062000901565b915050620000a6565b5050506200094e565b82805482825590600052602060002090810192821562000162579160200282015b828111156200016157825182908162000150919062000761565b509160200191906001019062000136565b5b50905062000171919062000175565b5090565b5b808211156200019957600081816200018f91906200019d565b5060010162000176565b5090565b508054620001ab9062000550565b6000825580601f10620001bf5750620001e0565b601f016020900490600052602060002090810190620001df9190620001e3565b5b50565b5b80821115620001fe576000816000905550600101620001e4565b5090565b6000604051905090565b600080fd5b600080fd5b600080fd5b600080fd5b6000601f19601f8301169050919050565b7f4e487b7100000000000000000000000000000000000000000000000000000000600052604160045260246000fd5b6200026b8262000220565b810181811067ffffffffffffffff821117156200028d576200028c62000231565b5b80604052505050565b6000620002a262000202565b9050620002b0828262000260565b919050565b600067ffffffffffffffff821115620002d357620002d262000231565b5b620002de8262000220565b9050602081019050919050565b60005b838110156200030b578082015181840152602081019050620002ee565b60008484015250505050565b60006200032e6200032884620002b5565b62000296565b9050828152602081018484840111156200034d576200034c6200021b565b5b6200035a848285620002eb565b509392505050565b600082601f8301126200037a576200037962000216565b5b81516200038c84826020860162000317565b91505092915050565b600067ffffffffffffffff821115620003b357620003b262000231565b5b602082029050602081019050919050565b600080fd5b6000620003e0620003da8462000395565b62000296565b90508083825260208201905060208402830185811115620004065762000405620003c4565b5b835b818110156200045457805167ffffffffffffffff8111156200042f576200042e62000216565b5b8086016200043e898262000362565b8552602085019450505060208101905062000408565b5050509392505050565b600082601f83011262000476576200047562000216565b5b815162000488848260208601620003c9565b91505092915050565b60008060408385031215620004ab57620004aa6200020c565b5b600083015167ffffffffffffffff811115620004cc57620004cb62000211565b5b620004da8582860162000362565b925050602083015167ffffffffffffffff811115620004fe57620004fd62000211565b5b6200050c858286016200045e565b9150509250929050565b600081519050919050565b7f4e487b7100000000000000000000000000000000000000000000000000000000600052602260045260246000fd5b600060028204905060018216806200056957607f821691505b6020821081036200057f576200057e62000521565b5b50919050565b60008190508160005260206000209050919050565b60006020601f8301049050919050565b600082821b905092915050565b600060088302620005e97fffffffffffffffffffffffffffffffffffffffffffffffffffffffffffffffff82620005aa565b620005f58683620005aa565b95508019841693508086168417925050509392505050565b6000819050919050565b6000819050919050565b6000620006426200063c62000636846200060d565b62000617565b6200060d565b9050919050565b6000819050919050565b6200065e8362000621565b620006766200066d8262000649565b848454620005b7565b825550505050565b600090565b6200068d6200067e565b6200069a81848462000653565b505050565b5b81811015620006c257620006b660008262000683565b600181019050620006a0565b5050565b601f8211156200071157620006db8162000585565b620006e6846200059a565b81016020851015620006f6578190505b6200070e62000705856200059a565b8301826200069f565b50505b505050565b600082821c905092915050565b6000620007366000198460080262000716565b1980831691505092915050565b600062000751838362000723565b9150826002028217905092915050565b6200076c8262000516565b67ffffffffffffffff81111562000788576200078762000231565b5b62000794825462000550565b620007a1828285620006c6565b600060209050601f831160018114620007d95760008415620007c4578287015190505b620007d0858262000743565b86555062000840565b601f198416620007e98662000585565b60005b828110156200081357848901518255600182019150602085019450602081019050620007ec565b868310156200083357848901516200082f601f89168262000723565b8355505b6001600288020188555050505b505050505050565b7f4e487b7100000000000000000000000000000000000000000000000000000000600052603260045260246000fd5b600081905092915050565b60006200088f8262000516565b6200089b818562000877565b9350620008ad818560208601620002eb565b80840191505092915050565b6000620008c7828462000882565b915081905092915050565b7f4e487b7100000000000000000000000000000000000000000000000000000000600052601160045260246000fd5b60006200090e826200060d565b91507fffffffffffffffffffffffffffffffffffffffffffffffffffffffffffffffff8203620009435762000942620008d2565b5b600182019050919050565b611033806200095e6000396000f3fe60806040526004361061004a5760003560e01c80631bf533a41461004f57806326f063ce1461006b57806341105c4b146100965780634717f97c146100d35780638574d5b0146100fe575b600080fd5b61006960048036038101906100649190610836565b61013b565b005b34801561007757600080fd5b50610080610392565b60405161008d9190610911565b60405180910390f35b3480156100a257600080fd5b506100bd60048036038101906100b89190610993565b610424565b6040516100ca91906109f9565b60405180910390f35b3480156100df57600080fd5b506100e8610452565b6040516100f59190610b6c565b60405180910390f35b34801561010a57600080fd5b5061012560048036038101906101209190610b8e565b61060b565b6040516101329190610bd6565b60405180910390f35b600260008373ffffffffffffffffffffffffffffffffffffffff1673ffffffffffffffffffffffffffffffffffffffff16815260200190815260200160002060000160149054906101000a900460ff16156101cb576040517f08c379a00000000000000000000000000000000000000000000000000000000081526004016101c290610c3d565b60405180910390fd5b6000805b60048054905081101561023857600481815481106101f0576101ef610c5d565b5b906000526020600020016040516102079190610d8f565b60405180910390208380519060200120036102255760019150610238565b808061023090610dd5565b9150506101cf565b5080610279576040517f08c379a000000000000000000000000000000000000000000000000000000000815260040161027090610e69565b60405180910390fd5b6001808360405161028a9190610ec5565b908152602001604051809103902060000160008282546102aa9190610edc565b9250508190555082600260008573ffffffffffffffffffffffffffffffffffffffff1673ffffffffffffffffffffffffffffffffffffffff16815260200190815260200160002060000160006101000a81548173ffffffffffffffffffffffffffffffffffffffff021916908373ffffffffffffffffffffffffffffffffffffffff1602179055506001600260008573ffffffffffffffffffffffffffffffffffffffff1673ffffffffffffffffffffffffffffffffffffffff16815260200190815260200160002060000160146101000a81548160ff021916908315150217905550505050565b6060600080546103a190610cbb565b80601f01602080910402602001604051908101604052809291908181526020018280546103cd90610cbb565b801561041a5780601f106103ef5761010080835404028352916020019161041a565b820191906000526020600020905b8154815290600101906020018083116103fd57829003601f168201915b5050505050905090565b600060018383604051610438929190610f35565b908152602001604051809103902060000154905092915050565b6060600060048054905067ffffffffffffffff8111156104755761047461070b565b5b6040519080825280602002602001820160405280156104ae57816020015b61049b610664565b8152602001906001900390816104935790505b5090506000805b600480549050811015610602576104ca610664565b600482815481106104de576104dd610c5d565b5b9060005260206000200180546104f390610cbb565b80601f016020809104026020016040519081016040528092919081815260200182805461051f90610cbb565b801561056c5780601f106105415761010080835404028352916020019161056c565b820191906000526020600020905b81548152906001019060200180831161054f57829003601f168201915b5050505050816000018190525060016004838154811061058f5761058e610c5d565b5b906000526020600020016040516105a69190610fe6565b908152602001604051809103902060000154816020018181525050808484815181106105d5576105d4610c5d565b5b602002602001018190525082806105eb90610dd5565b9350505080806105fa90610dd5565b9150506104b5565b50819250505090565b6000600260008373ffffffffffffffffffffffffffffffffffffffff1673ffffffffffffffffffffffffffffffffffffffff16815260200190815260200160002060000160149054906101000a900460ff169050919050565b604051806040016040528060608152602001600081525090565b6000604051905090565b600080fd5b600080fd5b600073ffffffffffffffffffffffffffffffffffffffff82169050919050565b60006106bd82610692565b9050919050565b6106cd816106b2565b81146106d857600080fd5b50565b6000813590506106ea816106c4565b92915050565b600080fd5b600080fd5b6000601f19601f8301169050919050565b7f4e487b7100000000000000000000000000000000000000000000000000000000600052604160045260246000fd5b610743826106fa565b810181811067ffffffffffffffff821117156107625761076161070b565b5b80604052505050565b600061077561067e565b9050610781828261073a565b919050565b600067ffffffffffffffff8211156107a1576107a061070b565b5b6107aa826106fa565b9050602081019050919050565b82818337600083830152505050565b60006107d96107d484610786565b61076b565b9050828152602081018484840111156107f5576107f46106f5565b5b6108008482856107b7565b509392505050565b600082601f83011261081d5761081c6106f0565b5b813561082d8482602086016107c6565b91505092915050565b6000806040838503121561084d5761084c610688565b5b600061085b858286016106db565b925050602083013567ffffffffffffffff81111561087c5761087b61068d565b5b61088885828601610808565b9150509250929050565b600081519050919050565b600082825260208201905092915050565b60005b838110156108cc5780820151818401526020810190506108b1565b60008484015250505050565b60006108e382610892565b6108ed818561089d565b93506108fd8185602086016108ae565b610906816106fa565b840191505092915050565b6000602082019050818103600083015261092b81846108d8565b905092915050565b600080fd5b600080fd5b60008083601f840112610953576109526106f0565b5b8235905067ffffffffffffffff8111156109705761096f610933565b5b60208301915083600182028301111561098c5761098b610938565b5b9250929050565b600080602083850312156109aa576109a9610688565b5b600083013567ffffffffffffffff8111156109c8576109c761068d565b5b6109d48582860161093d565b92509250509250929050565b6000819050919050565b6109f3816109e0565b82525050565b6000602082019050610a0e60008301846109ea565b92915050565b600081519050919050565b600082825260208201905092915050565b6000819050602082019050919050565b600082825260208201905092915050565b6000610a5c82610892565b610a668185610a40565b9350610a768185602086016108ae565b610a7f816106fa565b840191505092915050565b610a93816109e0565b82525050565b60006040830160008301518482036000860152610ab68282610a51565b9150506020830151610acb6020860182610a8a565b508091505092915050565b6000610ae28383610a99565b905092915050565b6000602082019050919050565b6000610b0282610a14565b610b0c8185610a1f565b935083602082028501610b1e85610a30565b8060005b85811015610b5a5784840389528151610b3b8582610ad6565b9450610b4683610aea565b925060208a01995050600181019050610b22565b50829750879550505050505092915050565b60006020820190508181036000830152610b868184610af7565b905092915050565b600060208284031215610ba457610ba3610688565b5b6000610bb2848285016106db565b91505092915050565b60008115159050919050565b610bd081610bbb565b82525050565b6000602082019050610beb6000830184610bc7565b92915050565b7f566f746520616c726561647920646f6e65212100000000000000000000000000600082015250565b6000610c2760138361089d565b9150610c3282610bf1565b602082019050919050565b60006020820190508181036000830152610c5681610c1a565b9050919050565b7f4e487b7100000000000000000000000000000000000000000000000000000000600052603260045260246000fd5b7f4e487b7100000000000000000000000000000000000000000000000000000000600052602260045260246000fd5b60006002820490506001821680610cd357607f821691505b602082108103610ce657610ce5610c8c565b5b50919050565b600081905092915050565b60008190508160005260206000209050919050565b60008154610d1981610cbb565b610d238186610cec565b94506001821660008114610d3e5760018114610d5357610d86565b60ff1983168652811515820286019350610d86565b610d5c85610cf7565b60005b83811015610d7e57815481890152600182019150602081019050610d5f565b838801955050505b50505092915050565b6000610d9b8284610d0c565b915081905092915050565b7f4e487b7100000000000000000000000000000000000000000000000000000000600052601160045260246000fd5b6000610de0826109e0565b91507fffffffffffffffffffffffffffffffffffffffffffffffffffffffffffffffff8203610e1257610e11610da6565b5b600182019050919050565b7f496e76616c6964204f7074696f6e000000000000000000000000000000000000600082015250565b6000610e53600e8361089d565b9150610e5e82610e1d565b602082019050919050565b60006020820190508181036000830152610e8281610e46565b9050919050565b600081905092915050565b6000610e9f82610892565b610ea98185610e89565b9350610eb98185602086016108ae565b80840191505092915050565b6000610ed18284610e94565b915081905092915050565b6000610ee7826109e0565b9150610ef2836109e0565b9250828201905080821115610f0a57610f09610da6565b5b92915050565b6000610f1c8385610e89565b9350610f298385846107b7565b82840190509392505050565b6000610f42828486610f10565b91508190509392505050565b60008190508160005260206000209050919050565b60008154610f7081610cbb565b610f7a8186610e89565b94506001821660008114610f955760018114610faa57610fdd565b60ff1983168652811515820286019350610fdd565b610fb385610f4e565b60005b83811015610fd557815481890152600182019150602081019050610fb6565b838801955050505b50505092915050565b6000610ff28284610f63565b91508190509291505056fea2646970667358221220dd5dc854f8bb4b389f3400dc3558c619815b58b360eddf452942b9ee706bb9f364736f6c63430008110033",
  "immutableReferences": {},
  "source": "//SPDX-License-Identifier: UNLICENSED\n\npragma solidity ^0.8.0;\n\nimport { Candidate, Voter, Result } from \"./../types/types.sol\";\n\ncontract Poll\n{\n   \n    string title;\n    mapping(string => Candidate) candidates;\n    mapping(address => Voter) voters;\n\n    address pollOwner;\n    string[] candidateNames;\n\n    constructor(string memory title_, string[] memory candidateNames_)\n    {\n        title = title_;\n        pollOwner = msg.sender;\n        candidateNames = candidateNames_;\n        for(uint i=0; i < candidateNames_.length; i++)\n        {\n            candidates[candidateNames_[i]].voteCount = 0;\n        }\n    }\n\n    function hasAlreadyVoted(address voter_) external view returns (bool hasVoted_)\n    {\n        hasVoted_ = voters[voter_].hasVoted;\n    }\n\n    function vote(address voter_, string memory candidateName) external payable\n    {\n        require(!voters[voter_].hasVoted, \"Vote already done!!\" );\n        bool optionExists = false;\n        for(uint i = 0; i < candidateNames.length; i++) \n        {\n            if(keccak256(bytes(candidateName)) == keccak256(bytes(candidateNames[i])))\n            {\n                optionExists = true;\n                break;\n            }\n        }\n        require(optionExists, \"Invalid Option\");\n        candidates[candidateName].voteCount += 1;\n        voters[voter_].voterAddress = voter_;\n        voters[voter_].hasVoted = true;\n    }\n\n    function getVoteCountFor(string calldata candidateName) external view returns (uint voteCount_)\n    {\n        voteCount_ = candidates[candidateName].voteCount;\n    }\n\n    function getResults() external view returns (Result[] memory)  {\n        Result[] memory finalResults = new Result[](candidateNames.length);\n        uint resultIndex = 0;\n        for (uint i = 0; i < candidateNames.length; i++) {\n            Result memory result;\n            result.name = candidateNames[i];\n            result.voteCount = candidates[candidateNames[i]].voteCount;\n            finalResults[resultIndex] = result;\n            resultIndex++;\n        }\n        return finalResults;\n    }\n\n    function getPollInfo() external view returns (string memory title_)\n    {\n        title_ = title;\n    }\n\n}",
  "sourcePath": "/Users/nidhilsuresh/projects/truffle/poll-ship-contract/contracts/Poll.sol",
  "compiler": {
    "name": "solc",
    "version": "0.8.17+commit.8df45f5f.Emscripten.clang"
  },
  "schemaVersion": "3.4.11",
  "updatedAt": "2022-12-11T12:30:49.184Z",
  "devdoc": {
    "kind": "dev",
    "methods": {},
    "version": 1
  },
  "userdoc": {
    "kind": "user",
    "methods": {},
    "version": 1
  }
}